:020000040800F2
:100000000000012049030008990300089903000833
:1000100099030008990300089903000800000000F4
:10002000000000000000000000000000990300082C
:100030000000000000000000990300089903000878
:100040009903000899030008990300089903000820
:100050009903000899030008990300089903000810
:100060009903000899030008990300089903000800
:1000700099030008990300089903000899030008F0
:1000800099030008990300089903000899030008E0
:1000900099030008990300089903000899030008D0
:1000A00099030008990300089903000899030008C0
:1000B0009903000899030008000000009903000854
:1000C00099030008990300089903000899030008A0
:1000D0009903000899030008990300089903000890
:1000E0009903000899030008990300080000000024
:1000F000000000000000000000000000990300085C
:1001000000000000990300080000000099030008A7
:1001100099030008000000009903000899030008F3
:10012000990300089903000899030008990300083F
:10013000990300089903000899030008990300082F
:10014000990300089903000899030008990300081F
:10015000990300089903000899030008990300080F
:1001600099030008990300089903000800000000A3
:1001700099030008990300089903000899030008EF
:100180009903000800000000990300089903000883
:0401900099030008C7
:1001940010B5054C237833B9044B13B10448AFF3BD
:1001A40000800123237010BD040000200000000023
:1001B4009C03000808B5034B1BB103490348AFF384
:1001C400008008BD00000000080000209C03000817
:1001D40070B50D4D0D4C641BA4100026A64209D128
:1001E4000B4D0C4C00F0D8F8641BA4100026A6425A
:1001F40005D170BD55F8043B98470136EEE755F834
:10020400043B98470136F2E7B4030008B40300083E
:10021400B4030008BC03000870477047024B13B1D5
:10022400024800F005B870470000000041020008D1
:10023400002301461A46184600F014B838B5074D95
:10024400074C641BA4101CB9BDE8384000F0AAB8E0
:10025400013C55F824309847F5E700BFBC0300087B
:10026400C00300082DE9F047DFF874A00646DAF869
:10027400000098460F469146FFF7CEFF164B1C68C8
:100284000CB9164C1C606568DAF800001F2D05DDFA
:10029400FFF7C3FF4FF0FF30BDE8F0879EB104EBDA
:1002A40085010122C1F88890D4F88831AA4013430B
:1002B400C4F88831022EC1F8088102BFD4F88C3109
:1002C4001343C4F88C316B1C0235636044F8257009
:1002D400FFF7A3FF0020DFE7240000202800002010
:1002E4000000002082B00023019302E0019B01334F
:1002F4000193019A024B9A42F8DD02B0704700BFA5
:100304009F860100064BDA6C42F00202DA64DB6C71
:10031400044A136823F0C00343F04003136070479A
:10032400001002400004004808B5FFF7EBFF044C3E
:100334000825A561FFF7D6FFA562FFF7D3FFF6E70F
:10034400000400480D488546AFF300800C480D4971
:100354000D4A002302E0D458C4500433C4188C421C
:10036400F9D30A4A0A4C002301E013600432A24282
:10037400FBD3FFF72DFFFFF7D7FFFEE700000120B7
:100384000000002004000020C00300080400002036
:10039400B8010020FEE70000F8B500BFF8BC08BCB7
:1003A4009E467047F8B500BFF8BC08BC9E4670472F
:0803B40021020008B901000854
:0403BC00950100089F
:0403C00020000020F9
:0400000508000349A3
:00000001FF
